{
  "contractName": "JollofswapV2Router02",
  "abi": [
    {
      "inputs": [
        {
          "internalType": "address",
          "name": "_factory",
          "type": "address"
        },
        {
          "internalType": "address",
          "name": "_WETH",
          "type": "address"
        }
      ],
      "stateMutability": "nonpayable",
      "type": "constructor"
    },
    {
      "inputs": [],
      "name": "WETH",
      "outputs": [
        {
          "internalType": "address",
          "name": "",
          "type": "address"
        }
      ],
      "stateMutability": "view",
      "type": "function",
      "constant": true
    },
    {
      "inputs": [],
      "name": "factory",
      "outputs": [
        {
          "internalType": "address",
          "name": "",
          "type": "address"
        }
      ],
      "stateMutability": "view",
      "type": "function",
      "constant": true
    },
    {
      "stateMutability": "payable",
      "type": "receive",
      "payable": true
    },
    {
      "inputs": [
        {
          "internalType": "address",
          "name": "tokenA",
          "type": "address"
        },
        {
          "internalType": "address",
          "name": "tokenB",
          "type": "address"
        },
        {
          "internalType": "uint256",
          "name": "amountADesired",
          "type": "uint256"
        },
        {
          "internalType": "uint256",
          "name": "amountBDesired",
          "type": "uint256"
        },
        {
          "internalType": "uint256",
          "name": "amountAMin",
          "type": "uint256"
        },
        {
          "internalType": "uint256",
          "name": "amountBMin",
          "type": "uint256"
        },
        {
          "internalType": "address",
          "name": "to",
          "type": "address"
        },
        {
          "internalType": "uint256",
          "name": "deadline",
          "type": "uint256"
        }
      ],
      "name": "addLiquidity",
      "outputs": [
        {
          "internalType": "uint256",
          "name": "amountA",
          "type": "uint256"
        },
        {
          "internalType": "uint256",
          "name": "amountB",
          "type": "uint256"
        },
        {
          "internalType": "uint256",
          "name": "liquidity",
          "type": "uint256"
        }
      ],
      "stateMutability": "nonpayable",
      "type": "function"
    },
    {
      "inputs": [
        {
          "internalType": "address",
          "name": "token",
          "type": "address"
        },
        {
          "internalType": "uint256",
          "name": "amountTokenDesired",
          "type": "uint256"
        },
        {
          "internalType": "uint256",
          "name": "amountTokenMin",
          "type": "uint256"
        },
        {
          "internalType": "uint256",
          "name": "amountETHMin",
          "type": "uint256"
        },
        {
          "internalType": "address",
          "name": "to",
          "type": "address"
        },
        {
          "internalType": "uint256",
          "name": "deadline",
          "type": "uint256"
        }
      ],
      "name": "addLiquidityETH",
      "outputs": [
        {
          "internalType": "uint256",
          "name": "amountToken",
          "type": "uint256"
        },
        {
          "internalType": "uint256",
          "name": "amountETH",
          "type": "uint256"
        },
        {
          "internalType": "uint256",
          "name": "liquidity",
          "type": "uint256"
        }
      ],
      "stateMutability": "payable",
      "type": "function",
      "payable": true
    },
    {
      "inputs": [
        {
          "internalType": "address",
          "name": "tokenA",
          "type": "address"
        },
        {
          "internalType": "address",
          "name": "tokenB",
          "type": "address"
        },
        {
          "internalType": "uint256",
          "name": "liquidity",
          "type": "uint256"
        },
        {
          "internalType": "uint256",
          "name": "amountAMin",
          "type": "uint256"
        },
        {
          "internalType": "uint256",
          "name": "amountBMin",
          "type": "uint256"
        },
        {
          "internalType": "address",
          "name": "to",
          "type": "address"
        },
        {
          "internalType": "uint256",
          "name": "deadline",
          "type": "uint256"
        }
      ],
      "name": "removeLiquidity",
      "outputs": [
        {
          "internalType": "uint256",
          "name": "amountA",
          "type": "uint256"
        },
        {
          "internalType": "uint256",
          "name": "amountB",
          "type": "uint256"
        }
      ],
      "stateMutability": "nonpayable",
      "type": "function"
    },
    {
      "inputs": [
        {
          "internalType": "address",
          "name": "token",
          "type": "address"
        },
        {
          "internalType": "uint256",
          "name": "liquidity",
          "type": "uint256"
        },
        {
          "internalType": "uint256",
          "name": "amountTokenMin",
          "type": "uint256"
        },
        {
          "internalType": "uint256",
          "name": "amountETHMin",
          "type": "uint256"
        },
        {
          "internalType": "address",
          "name": "to",
          "type": "address"
        },
        {
          "internalType": "uint256",
          "name": "deadline",
          "type": "uint256"
        }
      ],
      "name": "removeLiquidityETH",
      "outputs": [
        {
          "internalType": "uint256",
          "name": "amountToken",
          "type": "uint256"
        },
        {
          "internalType": "uint256",
          "name": "amountETH",
          "type": "uint256"
        }
      ],
      "stateMutability": "nonpayable",
      "type": "function"
    },
    {
      "inputs": [
        {
          "internalType": "address",
          "name": "tokenA",
          "type": "address"
        },
        {
          "internalType": "address",
          "name": "tokenB",
          "type": "address"
        },
        {
          "internalType": "uint256",
          "name": "liquidity",
          "type": "uint256"
        },
        {
          "internalType": "uint256",
          "name": "amountAMin",
          "type": "uint256"
        },
        {
          "internalType": "uint256",
          "name": "amountBMin",
          "type": "uint256"
        },
        {
          "internalType": "address",
          "name": "to",
          "type": "address"
        },
        {
          "internalType": "uint256",
          "name": "deadline",
          "type": "uint256"
        },
        {
          "internalType": "bool",
          "name": "approveMax",
          "type": "bool"
        },
        {
          "internalType": "uint8",
          "name": "v",
          "type": "uint8"
        },
        {
          "internalType": "bytes32",
          "name": "r",
          "type": "bytes32"
        },
        {
          "internalType": "bytes32",
          "name": "s",
          "type": "bytes32"
        }
      ],
      "name": "removeLiquidityWithPermit",
      "outputs": [
        {
          "internalType": "uint256",
          "name": "amountA",
          "type": "uint256"
        },
        {
          "internalType": "uint256",
          "name": "amountB",
          "type": "uint256"
        }
      ],
      "stateMutability": "nonpayable",
      "type": "function"
    },
    {
      "inputs": [
        {
          "internalType": "address",
          "name": "token",
          "type": "address"
        },
        {
          "internalType": "uint256",
          "name": "liquidity",
          "type": "uint256"
        },
        {
          "internalType": "uint256",
          "name": "amountTokenMin",
          "type": "uint256"
        },
        {
          "internalType": "uint256",
          "name": "amountETHMin",
          "type": "uint256"
        },
        {
          "internalType": "address",
          "name": "to",
          "type": "address"
        },
        {
          "internalType": "uint256",
          "name": "deadline",
          "type": "uint256"
        },
        {
          "internalType": "bool",
          "name": "approveMax",
          "type": "bool"
        },
        {
          "internalType": "uint8",
          "name": "v",
          "type": "uint8"
        },
        {
          "internalType": "bytes32",
          "name": "r",
          "type": "bytes32"
        },
        {
          "internalType": "bytes32",
          "name": "s",
          "type": "bytes32"
        }
      ],
      "name": "removeLiquidityETHWithPermit",
      "outputs": [
        {
          "internalType": "uint256",
          "name": "amountToken",
          "type": "uint256"
        },
        {
          "internalType": "uint256",
          "name": "amountETH",
          "type": "uint256"
        }
      ],
      "stateMutability": "nonpayable",
      "type": "function"
    },
    {
      "inputs": [
        {
          "internalType": "address",
          "name": "token",
          "type": "address"
        },
        {
          "internalType": "uint256",
          "name": "liquidity",
          "type": "uint256"
        },
        {
          "internalType": "uint256",
          "name": "amountTokenMin",
          "type": "uint256"
        },
        {
          "internalType": "uint256",
          "name": "amountETHMin",
          "type": "uint256"
        },
        {
          "internalType": "address",
          "name": "to",
          "type": "address"
        },
        {
          "internalType": "uint256",
          "name": "deadline",
          "type": "uint256"
        }
      ],
      "name": "removeLiquidityETHSupportingFeeOnTransferTokens",
      "outputs": [
        {
          "internalType": "uint256",
          "name": "amountETH",
          "type": "uint256"
        }
      ],
      "stateMutability": "nonpayable",
      "type": "function"
    },
    {
      "inputs": [
        {
          "internalType": "address",
          "name": "token",
          "type": "address"
        },
        {
          "internalType": "uint256",
          "name": "liquidity",
          "type": "uint256"
        },
        {
          "internalType": "uint256",
          "name": "amountTokenMin",
          "type": "uint256"
        },
        {
          "internalType": "uint256",
          "name": "amountETHMin",
          "type": "uint256"
        },
        {
          "internalType": "address",
          "name": "to",
          "type": "address"
        },
        {
          "internalType": "uint256",
          "name": "deadline",
          "type": "uint256"
        },
        {
          "internalType": "bool",
          "name": "approveMax",
          "type": "bool"
        },
        {
          "internalType": "uint8",
          "name": "v",
          "type": "uint8"
        },
        {
          "internalType": "bytes32",
          "name": "r",
          "type": "bytes32"
        },
        {
          "internalType": "bytes32",
          "name": "s",
          "type": "bytes32"
        }
      ],
      "name": "removeLiquidityETHWithPermitSupportingFeeOnTransferTokens",
      "outputs": [
        {
          "internalType": "uint256",
          "name": "amountETH",
          "type": "uint256"
        }
      ],
      "stateMutability": "nonpayable",
      "type": "function"
    },
    {
      "inputs": [
        {
          "internalType": "uint256",
          "name": "amountIn",
          "type": "uint256"
        },
        {
          "internalType": "uint256",
          "name": "amountOutMin",
          "type": "uint256"
        },
        {
          "internalType": "address[]",
          "name": "path",
          "type": "address[]"
        },
        {
          "internalType": "address",
          "name": "to",
          "type": "address"
        },
        {
          "internalType": "uint256",
          "name": "deadline",
          "type": "uint256"
        }
      ],
      "name": "swapExactTokensForTokens",
      "outputs": [
        {
          "internalType": "uint256[]",
          "name": "amounts",
          "type": "uint256[]"
        }
      ],
      "stateMutability": "nonpayable",
      "type": "function"
    },
    {
      "inputs": [
        {
          "internalType": "uint256",
          "name": "amountOut",
          "type": "uint256"
        },
        {
          "internalType": "uint256",
          "name": "amountInMax",
          "type": "uint256"
        },
        {
          "internalType": "address[]",
          "name": "path",
          "type": "address[]"
        },
        {
          "internalType": "address",
          "name": "to",
          "type": "address"
        },
        {
          "internalType": "uint256",
          "name": "deadline",
          "type": "uint256"
        }
      ],
      "name": "swapTokensForExactTokens",
      "outputs": [
        {
          "internalType": "uint256[]",
          "name": "amounts",
          "type": "uint256[]"
        }
      ],
      "stateMutability": "nonpayable",
      "type": "function"
    },
    {
      "inputs": [
        {
          "internalType": "uint256",
          "name": "amountOutMin",
          "type": "uint256"
        },
        {
          "internalType": "address[]",
          "name": "path",
          "type": "address[]"
        },
        {
          "internalType": "address",
          "name": "to",
          "type": "address"
        },
        {
          "internalType": "uint256",
          "name": "deadline",
          "type": "uint256"
        }
      ],
      "name": "swapExactETHForTokens",
      "outputs": [
        {
          "internalType": "uint256[]",
          "name": "amounts",
          "type": "uint256[]"
        }
      ],
      "stateMutability": "payable",
      "type": "function",
      "payable": true
    },
    {
      "inputs": [
        {
          "internalType": "uint256",
          "name": "amountOut",
          "type": "uint256"
        },
        {
          "internalType": "uint256",
          "name": "amountInMax",
          "type": "uint256"
        },
        {
          "internalType": "address[]",
          "name": "path",
          "type": "address[]"
        },
        {
          "internalType": "address",
          "name": "to",
          "type": "address"
        },
        {
          "internalType": "uint256",
          "name": "deadline",
          "type": "uint256"
        }
      ],
      "name": "swapTokensForExactETH",
      "outputs": [
        {
          "internalType": "uint256[]",
          "name": "amounts",
          "type": "uint256[]"
        }
      ],
      "stateMutability": "nonpayable",
      "type": "function"
    },
    {
      "inputs": [
        {
          "internalType": "uint256",
          "name": "amountIn",
          "type": "uint256"
        },
        {
          "internalType": "uint256",
          "name": "amountOutMin",
          "type": "uint256"
        },
        {
          "internalType": "address[]",
          "name": "path",
          "type": "address[]"
        },
        {
          "internalType": "address",
          "name": "to",
          "type": "address"
        },
        {
          "internalType": "uint256",
          "name": "deadline",
          "type": "uint256"
        }
      ],
      "name": "swapExactTokensForETH",
      "outputs": [
        {
          "internalType": "uint256[]",
          "name": "amounts",
          "type": "uint256[]"
        }
      ],
      "stateMutability": "nonpayable",
      "type": "function"
    },
    {
      "inputs": [
        {
          "internalType": "uint256",
          "name": "amountOut",
          "type": "uint256"
        },
        {
          "internalType": "address[]",
          "name": "path",
          "type": "address[]"
        },
        {
          "internalType": "address",
          "name": "to",
          "type": "address"
        },
        {
          "internalType": "uint256",
          "name": "deadline",
          "type": "uint256"
        }
      ],
      "name": "swapETHForExactTokens",
      "outputs": [
        {
          "internalType": "uint256[]",
          "name": "amounts",
          "type": "uint256[]"
        }
      ],
      "stateMutability": "payable",
      "type": "function",
      "payable": true
    },
    {
      "inputs": [
        {
          "internalType": "uint256",
          "name": "amountA",
          "type": "uint256"
        },
        {
          "internalType": "uint256",
          "name": "reserveA",
          "type": "uint256"
        },
        {
          "internalType": "uint256",
          "name": "reserveB",
          "type": "uint256"
        }
      ],
      "name": "quote",
      "outputs": [
        {
          "internalType": "uint256",
          "name": "amountB",
          "type": "uint256"
        }
      ],
      "stateMutability": "pure",
      "type": "function",
      "constant": true
    },
    {
      "inputs": [
        {
          "internalType": "uint256",
          "name": "amountIn",
          "type": "uint256"
        },
        {
          "internalType": "uint256",
          "name": "reserveIn",
          "type": "uint256"
        },
        {
          "internalType": "uint256",
          "name": "reserveOut",
          "type": "uint256"
        }
      ],
      "name": "getAmountOut",
      "outputs": [
        {
          "internalType": "uint256",
          "name": "amountOut",
          "type": "uint256"
        }
      ],
      "stateMutability": "pure",
      "type": "function",
      "constant": true
    },
    {
      "inputs": [
        {
          "internalType": "uint256",
          "name": "amountOut",
          "type": "uint256"
        },
        {
          "internalType": "uint256",
          "name": "reserveIn",
          "type": "uint256"
        },
        {
          "internalType": "uint256",
          "name": "reserveOut",
          "type": "uint256"
        }
      ],
      "name": "getAmountIn",
      "outputs": [
        {
          "internalType": "uint256",
          "name": "amountIn",
          "type": "uint256"
        }
      ],
      "stateMutability": "pure",
      "type": "function",
      "constant": true
    },
    {
      "inputs": [
        {
          "internalType": "uint256",
          "name": "amountIn",
          "type": "uint256"
        },
        {
          "internalType": "address[]",
          "name": "path",
          "type": "address[]"
        }
      ],
      "name": "getAmountsOut",
      "outputs": [
        {
          "internalType": "uint256[]",
          "name": "amounts",
          "type": "uint256[]"
        }
      ],
      "stateMutability": "view",
      "type": "function",
      "constant": true
    },
    {
      "inputs": [
        {
          "internalType": "uint256",
          "name": "amountOut",
          "type": "uint256"
        },
        {
          "internalType": "address[]",
          "name": "path",
          "type": "address[]"
        }
      ],
      "name": "getAmountsIn",
      "outputs": [
        {
          "internalType": "uint256[]",
          "name": "amounts",
          "type": "uint256[]"
        }
      ],
      "stateMutability": "view",
      "type": "function",
      "constant": true
    }
  ],
  "bytecode": "0x60c060405234801561001057600080fd5b50604051613a26380380613a268339818101604052604081101561003357600080fd5b5080516020909101516001600160601b0319606092831b8116608052911b1660a05260805160601c60a05160601c6138d66101506000398061013e5280610b135280610b4e5280610c455280610e6352806111ed5280611353528061147f52806115c5528061164d52806118af528061192a52806119d95280611d205280611f935280611fe9528061201d52806120915280612231528061237452806123fc525080610cd35280610daa5280610f295280610f62528061109d528061127b52806113315280611512528061167f52806117ff5280611aad5280611ca55280611cce5280611cfe5280611e6b5280611fc752806122c4528061242e5280612ca95280612cec52806131f752806132a5528061332552506138d66000f3fe60806040526004361061012e5760003560e01c80638803dbee116100ab578063c45a01551161006f578063c45a01551461083f578063d06ca61f14610854578063ded9382a14610909578063e8e337001461097c578063f305d719146109fc578063fb3bdb4114610a4257610167565b80638803dbee14610692578063ad5c464814610728578063ad615dec14610759578063af2979eb1461078f578063baa2abde146107e257610167565b806338ed1739116100f257806338ed1739146104395780634a25d94a146104cf5780635b0d5984146105655780637ff36ab5146105d857806385f8c2591461065c57610167565b806302751cec1461016c578063054d50d4146101d857806318cbafe5146102205780631f00ca74146103065780632195995c146103bb57610167565b3661016757336001600160a01b037f0000000000000000000000000000000000000000000000000000000000000000161461016557fe5b005b600080fd5b34801561017857600080fd5b506101bf600480360360c081101561018f57600080fd5b506001600160a01b0381358116916020810135916040820135916060810135916080820135169060a00135610ac6565b6040805192835260208301919091528051918290030190f35b3480156101e457600080fd5b5061020e600480360360608110156101fb57600080fd5b5080359060208101359060400135610be0565b60408051918252519081900360200190f35b34801561022c57600080fd5b506102b6600480360360a081101561024357600080fd5b813591602081013591810190606081016040820135600160201b81111561026957600080fd5b82018360208201111561027b57600080fd5b803590602001918460208302840111600160201b8311171561029c57600080fd5b91935091506001600160a01b038135169060200135610bf5565b60408051602080825283518183015283519192839290830191858101910280838360005b838110156102f25781810151838201526020016102da565b505050509050019250505060405180910390f35b34801561031257600080fd5b506102b66004803603604081101561032957600080fd5b81359190810190604081016020820135600160201b81111561034a57600080fd5b82018360208201111561035c57600080fd5b803590602001918460208302840111600160201b8311171561037d57600080fd5b919080806020026020016040519081016040528093929190818152602001838360200280828437600092019190915250929550610f22945050505050565b3480156103c757600080fd5b506101bf60048036036101608110156103df57600080fd5b506001600160a01b038135811691602081013582169160408201359160608101359160808201359160a08101359091169060c08101359060e081013515159060ff6101008201351690610120810135906101400135610f58565b34801561044557600080fd5b506102b6600480360360a081101561045c57600080fd5b813591602081013591810190606081016040820135600160201b81111561048257600080fd5b82018360208201111561049457600080fd5b803590602001918460208302840111600160201b831117156104b557600080fd5b91935091506001600160a01b038135169060200135611052565b3480156104db57600080fd5b506102b6600480360360a08110156104f257600080fd5b813591602081013591810190606081016040820135600160201b81111561051857600080fd5b82018360208201111561052a57600080fd5b803590602001918460208302840111600160201b8311171561054b57600080fd5b91935091506001600160a01b03813516906020013561119d565b34801561057157600080fd5b5061020e600480360361014081101561058957600080fd5b506001600160a01b0381358116916020810135916040820135916060810135916080820135169060a08101359060c081013515159060ff60e08201351690610100810135906101200135611329565b6102b6600480360360808110156105ee57600080fd5b81359190810190604081016020820135600160201b81111561060f57600080fd5b82018360208201111561062157600080fd5b803590602001918460208302840111600160201b8311171561064257600080fd5b91935091506001600160a01b038135169060200135611437565b34801561066857600080fd5b5061020e6004803603606081101561067f57600080fd5b50803590602081013590604001356117a7565b34801561069e57600080fd5b506102b6600480360360a08110156106b557600080fd5b813591602081013591810190606081016040820135600160201b8111156106db57600080fd5b8201836020820111156106ed57600080fd5b803590602001918460208302840111600160201b8311171561070e57600080fd5b91935091506001600160a01b0381351690602001356117b4565b34801561073457600080fd5b5061073d6118ad565b604080516001600160a01b039092168252519081900360200190f35b34801561076557600080fd5b5061020e6004803603606081101561077c57600080fd5b50803590602081013590604001356118d1565b34801561079b57600080fd5b5061020e600480360360c08110156107b257600080fd5b506001600160a01b0381358116916020810135916040820135916060810135916080820135169060a001356118de565b3480156107ee57600080fd5b506101bf600480360360e081101561080557600080fd5b506001600160a01b038135811691602081013582169160408201359160608101359160808201359160a08101359091169060c00135611a5f565b34801561084b57600080fd5b5061073d611ca3565b34801561086057600080fd5b506102b66004803603604081101561087757600080fd5b81359190810190604081016020820135600160201b81111561089857600080fd5b8201836020820111156108aa57600080fd5b803590602001918460208302840111600160201b831117156108cb57600080fd5b919080806020026020016040519081016040528093929190818152602001838360200280828437600092019190915250929550611cc7945050505050565b34801561091557600080fd5b506101bf600480360361014081101561092d57600080fd5b506001600160a01b0381358116916020810135916040820135916060810135916080820135169060a08101359060c081013515159060ff60e08201351690610100810135906101200135611cf4565b34801561098857600080fd5b506109de60048036036101008110156109a057600080fd5b506001600160a01b038135811691602081013582169160408201359160608101359160808201359160a08101359160c0820135169060e00135611e08565b60408051938452602084019290925282820152519081900360600190f35b6109de600480360360c0811015610a1257600080fd5b506001600160a01b0381358116916020810135916040820135916060810135916080820135169060a00135611f44565b6102b660048036036080811015610a5857600080fd5b81359190810190604081016020820135600160201b811115610a7957600080fd5b820183602082011115610a8b57600080fd5b803590602001918460208302840111600160201b83111715610aac57600080fd5b91935091506001600160a01b0381351690602001356121e9565b6000808242811015610b0d576040805162461bcd60e51b815260206004820152601b602482015260008051602061360b833981519152604482015290519081900360640190fd5b610b3c897f00000000000000000000000000000000000000000000000000000000000000008a8a8a308a611a5f565b9093509150610b4c89868561256b565b7f00000000000000000000000000000000000000000000000000000000000000006001600160a01b0316632e1a7d4d836040518263ffffffff1660e01b815260040180828152602001915050600060405180830381600087803b158015610bb257600080fd5b505af1158015610bc6573d6000803e3d6000fd5b50505050610bd485836126bf565b50965096945050505050565b6000610bed8484846127b7565b949350505050565b60608142811015610c3b576040805162461bcd60e51b815260206004820152601b602482015260008051602061360b833981519152604482015290519081900360640190fd5b6001600160a01b037f00000000000000000000000000000000000000000000000000000000000000001686866000198101818110610c7557fe5b905060200201356001600160a01b03166001600160a01b031614610cce576040805162461bcd60e51b815260206004820181905260248201526000805160206137b1833981519152604482015290519081900360640190fd5b610d2c7f0000000000000000000000000000000000000000000000000000000000000000898888808060200260200160405190810160405280939291908181526020018383602002808284376000920191909152506128a792505050565b91508682600184510381518110610d3f57fe5b60200260200101511015610d845760405162461bcd60e51b815260040180806020018281038252602e81526020018061362b602e913960400191505060405180910390fd5b610e2286866000818110610d9457fe5b905060200201356001600160a01b031633610e087f00000000000000000000000000000000000000000000000000000000000000008a8a6000818110610dd657fe5b905060200201356001600160a01b03168b8b6001818110610df357fe5b905060200201356001600160a01b03166129dd565b85600081518110610e1557fe5b6020026020010151612a9d565b610e6182878780806020026020016040519081016040528093929190818152602001838360200280828437600092019190915250309250612bfa915050565b7f00000000000000000000000000000000000000000000000000000000000000006001600160a01b0316632e1a7d4d83600185510381518110610ea057fe5b60200260200101516040518263ffffffff1660e01b815260040180828152602001915050600060405180830381600087803b158015610ede57600080fd5b505af1158015610ef2573d6000803e3d6000fd5b50505050610f178483600185510381518110610f0a57fe5b60200260200101516126bf565b509695505050505050565b6060610f4f7f00000000000000000000000000000000000000000000000000000000000000008484612e40565b90505b92915050565b6000806000610f887f00000000000000000000000000000000000000000000000000000000000000008f8f6129dd565b9050600087610f97578c610f9b565b6000195b6040805163d505accf60e01b815233600482015230602482015260448101839052606481018c905260ff8a16608482015260a4810189905260c4810188905290519192506001600160a01b0384169163d505accf9160e48082019260009290919082900301818387803b15801561101157600080fd5b505af1158015611025573d6000803e3d6000fd5b505050506110388f8f8f8f8f8f8f611a5f565b809450819550505050509b509b9950505050505050505050565b60608142811015611098576040805162461bcd60e51b815260206004820152601b602482015260008051602061360b833981519152604482015290519081900360640190fd5b6110f67f0000000000000000000000000000000000000000000000000000000000000000898888808060200260200160405190810160405280939291908181526020018383602002808284376000920191909152506128a792505050565b9150868260018451038151811061110957fe5b6020026020010151101561114e5760405162461bcd60e51b815260040180806020018281038252602e81526020018061362b602e913960400191505060405180910390fd5b61115e86866000818110610d9457fe5b610f1782878780806020026020016040519081016040528093929190818152602001838360200280828437600092019190915250899250612bfa915050565b606081428110156111e3576040805162461bcd60e51b815260206004820152601b602482015260008051602061360b833981519152604482015290519081900360640190fd5b6001600160a01b037f0000000000000000000000000000000000000000000000000000000000000000168686600019810181811061121d57fe5b905060200201356001600160a01b03166001600160a01b031614611276576040805162461bcd60e51b815260206004820181905260248201526000805160206137b1833981519152604482015290519081900360640190fd5b6112d47f000000000000000000000000000000000000000000000000000000000000000089888880806020026020016040519081016040528093929190818152602001838360200280828437600092019190915250612e4092505050565b915086826000815181106112e457fe5b60200260200101511115610d845760405162461bcd60e51b815260040180806020018281038252602a815260200180613659602a913960400191505060405180910390fd5b6000806113777f00000000000000000000000000000000000000000000000000000000000000008d7f00000000000000000000000000000000000000000000000000000000000000006129dd565b9050600086611386578b61138a565b6000195b6040805163d505accf60e01b815233600482015230602482015260448101839052606481018b905260ff8916608482015260a4810188905260c4810187905290519192506001600160a01b0384169163d505accf9160e48082019260009290919082900301818387803b15801561140057600080fd5b505af1158015611414573d6000803e3d6000fd5b505050506114268d8d8d8d8d8d6118de565b9d9c50505050505050505050505050565b6060814281101561147d576040805162461bcd60e51b815260206004820152601b602482015260008051602061360b833981519152604482015290519081900360640190fd5b7f00000000000000000000000000000000000000000000000000000000000000006001600160a01b0316868660008181106114b457fe5b905060200201356001600160a01b03166001600160a01b03161461150d576040805162461bcd60e51b815260206004820181905260248201526000805160206137b1833981519152604482015290519081900360640190fd5b61156b7f0000000000000000000000000000000000000000000000000000000000000000348888808060200260200160405190810160405280939291908181526020018383602002808284376000920191909152506128a792505050565b9150868260018451038151811061157e57fe5b602002602001015110156115c35760405162461bcd60e51b815260040180806020018281038252602e81526020018061362b602e913960400191505060405180910390fd5b7f00000000000000000000000000000000000000000000000000000000000000006001600160a01b031663d0e30db0836000815181106115ff57fe5b60200260200101516040518263ffffffff1660e01b81526004016000604051808303818588803b15801561163257600080fd5b505af1158015611646573d6000803e3d6000fd5b50505050507f00000000000000000000000000000000000000000000000000000000000000006001600160a01b031663a9059cbb6116c87f0000000000000000000000000000000000000000000000000000000000000000898960008181106116ab57fe5b905060200201356001600160a01b03168a8a6001818110610df357fe5b846000815181106116d557fe5b60200260200101516040518363ffffffff1660e01b815260040180836001600160a01b03166001600160a01b0316815260200182815260200192505050602060405180830381600087803b15801561172c57600080fd5b505af1158015611740573d6000803e3d6000fd5b505050506040513d602081101561175657600080fd5b505161175e57fe5b61179d82878780806020026020016040519081016040528093929190818152602001838360200280828437600092019190915250899250612bfa915050565b5095945050505050565b6000610bed848484612f62565b606081428110156117fa576040805162461bcd60e51b815260206004820152601b602482015260008051602061360b833981519152604482015290519081900360640190fd5b6118587f000000000000000000000000000000000000000000000000000000000000000089888880806020026020016040519081016040528093929190818152602001838360200280828437600092019190915250612e4092505050565b9150868260008151811061186857fe5b6020026020010151111561114e5760405162461bcd60e51b815260040180806020018281038252602a815260200180613659602a913960400191505060405180910390fd5b7f000000000000000000000000000000000000000000000000000000000000000081565b6000610bed848484613052565b60008142811015611924576040805162461bcd60e51b815260206004820152601b602482015260008051602061360b833981519152604482015290519081900360640190fd5b611953887f00000000000000000000000000000000000000000000000000000000000000008989893089611a5f565b604080516370a0823160e01b815230600482015290519194506119d792508a9187916001600160a01b038416916370a0823191602480820192602092909190829003018186803b1580156119a657600080fd5b505afa1580156119ba573d6000803e3d6000fd5b505050506040513d60208110156119d057600080fd5b505161256b565b7f00000000000000000000000000000000000000000000000000000000000000006001600160a01b0316632e1a7d4d836040518263ffffffff1660e01b815260040180828152602001915050600060405180830381600087803b158015611a3d57600080fd5b505af1158015611a51573d6000803e3d6000fd5b50505050610f1784836126bf565b6000808242811015611aa6576040805162461bcd60e51b815260206004820152601b602482015260008051602061360b833981519152604482015290519081900360640190fd5b6000611ad37f00000000000000000000000000000000000000000000000000000000000000008c8c6129dd565b604080516323b872dd60e01b81523360048201526001600160a01b03831660248201819052604482018d9052915192935090916323b872dd916064808201926020929091908290030181600087803b158015611b2e57600080fd5b505af1158015611b42573d6000803e3d6000fd5b505050506040513d6020811015611b5857600080fd5b50506040805163226bf2d160e21b81526001600160a01b03888116600483015282516000938493928616926389afcb44926024808301939282900301818787803b158015611ba557600080fd5b505af1158015611bb9573d6000803e3d6000fd5b505050506040513d6040811015611bcf57600080fd5b50805160209091015190925090506000611be98e8e6130fe565b509050806001600160a01b03168e6001600160a01b031614611c0c578183611c0f565b82825b90975095508a871015611c535760405162461bcd60e51b81526004018080602001828103825260298152602001806137316029913960400191505060405180910390fd5b89861015611c925760405162461bcd60e51b815260040180806020018281038252602981526020018061375a6029913960400191505060405180910390fd5b505050505097509795505050505050565b7f000000000000000000000000000000000000000000000000000000000000000081565b6060610f4f7f000000000000000000000000000000000000000000000000000000000000000084846128a7565b6000806000611d447f00000000000000000000000000000000000000000000000000000000000000008e7f00000000000000000000000000000000000000000000000000000000000000006129dd565b9050600087611d53578c611d57565b6000195b6040805163d505accf60e01b815233600482015230602482015260448101839052606481018c905260ff8a16608482015260a4810189905260c4810188905290519192506001600160a01b0384169163d505accf9160e48082019260009290919082900301818387803b158015611dcd57600080fd5b505af1158015611de1573d6000803e3d6000fd5b50505050611df38e8e8e8e8e8e610ac6565b909f909e509c50505050505050505050505050565b60008060008342811015611e51576040805162461bcd60e51b815260206004820152601b602482015260008051602061360b833981519152604482015290519081900360640190fd5b611e5f8c8c8c8c8c8c6131c6565b90945092506000611e917f00000000000000000000000000000000000000000000000000000000000000008e8e6129dd565b9050611e9f8d338388612a9d565b611eab8c338387612a9d565b806001600160a01b0316636a627842886040518263ffffffff1660e01b815260040180826001600160a01b03166001600160a01b03168152602001915050602060405180830381600087803b158015611f0357600080fd5b505af1158015611f17573d6000803e3d6000fd5b505050506040513d6020811015611f2d57600080fd5b5051949d939c50939a509198505050505050505050565b60008060008342811015611f8d576040805162461bcd60e51b815260206004820152601b602482015260008051602061360b833981519152604482015290519081900360640190fd5b611fbb8a7f00000000000000000000000000000000000000000000000000000000000000008b348c8c6131c6565b9094509250600061200d7f00000000000000000000000000000000000000000000000000000000000000008c7f00000000000000000000000000000000000000000000000000000000000000006129dd565b905061201b8b338388612a9d565b7f00000000000000000000000000000000000000000000000000000000000000006001600160a01b031663d0e30db0856040518263ffffffff1660e01b81526004016000604051808303818588803b15801561207657600080fd5b505af115801561208a573d6000803e3d6000fd5b50505050507f00000000000000000000000000000000000000000000000000000000000000006001600160a01b031663a9059cbb82866040518363ffffffff1660e01b815260040180836001600160a01b03166001600160a01b0316815260200182815260200192505050602060405180830381600087803b15801561210f57600080fd5b505af1158015612123573d6000803e3d6000fd5b505050506040513d602081101561213957600080fd5b505161214157fe5b806001600160a01b0316636a627842886040518263ffffffff1660e01b815260040180826001600160a01b03166001600160a01b03168152602001915050602060405180830381600087803b15801561219957600080fd5b505af11580156121ad573d6000803e3d6000fd5b505050506040513d60208110156121c357600080fd5b50519250348410156121db576121db338534036126bf565b505096509650969350505050565b6060814281101561222f576040805162461bcd60e51b815260206004820152601b602482015260008051602061360b833981519152604482015290519081900360640190fd5b7f00000000000000000000000000000000000000000000000000000000000000006001600160a01b03168686600081811061226657fe5b905060200201356001600160a01b03166001600160a01b0316146122bf576040805162461bcd60e51b815260206004820181905260248201526000805160206137b1833981519152604482015290519081900360640190fd5b61231d7f000000000000000000000000000000000000000000000000000000000000000088888880806020026020016040519081016040528093929190818152602001838360200280828437600092019190915250612e4092505050565b9150348260008151811061232d57fe5b602002602001015111156123725760405162461bcd60e51b815260040180806020018281038252602a815260200180613659602a913960400191505060405180910390fd5b7f00000000000000000000000000000000000000000000000000000000000000006001600160a01b031663d0e30db0836000815181106123ae57fe5b60200260200101516040518263ffffffff1660e01b81526004016000604051808303818588803b1580156123e157600080fd5b505af11580156123f5573d6000803e3d6000fd5b50505050507f00000000000000000000000000000000000000000000000000000000000000006001600160a01b031663a9059cbb61245a7f0000000000000000000000000000000000000000000000000000000000000000898960008181106116ab57fe5b8460008151811061246757fe5b60200260200101516040518363ffffffff1660e01b815260040180836001600160a01b03166001600160a01b0316815260200182815260200192505050602060405180830381600087803b1580156124be57600080fd5b505af11580156124d2573d6000803e3d6000fd5b505050506040513d60208110156124e857600080fd5b50516124f057fe5b61252f82878780806020026020016040519081016040528093929190818152602001838360200280828437600092019190915250899250612bfa915050565b8160008151811061253c57fe5b602002602001015134111561179d5761179d338360008151811061255c57fe5b602002602001015134036126bf565b604080516001600160a01b038481166024830152604480830185905283518084039091018152606490920183526020820180516001600160e01b031663a9059cbb60e01b178152925182516000946060949389169392918291908083835b602083106125e85780518252601f1990920191602091820191016125c9565b6001836020036101000a0380198251168184511680821785525050505050509050019150506000604051808303816000865af19150503d806000811461264a576040519150601f19603f3d011682016040523d82523d6000602084013e61264f565b606091505b509150915081801561267d57508051158061267d575080806020019051602081101561267a57600080fd5b50515b6126b85760405162461bcd60e51b815260040180806020018281038252602d815260200180613849602d913960400191505060405180910390fd5b5050505050565b604080516000808252602082019092526001600160a01b0384169083906040518082805190602001908083835b6020831061270b5780518252601f1990920191602091820191016126ec565b6001836020036101000a03801982511681845116808217855250505050505090500191505060006040518083038185875af1925050503d806000811461276d576040519150601f19603f3d011682016040523d82523d6000602084013e612772565b606091505b50509050806127b25760405162461bcd60e51b81526004018080602001828103825260348152602001806136fd6034913960400191505060405180910390fd5b505050565b60008084116127f75760405162461bcd60e51b815260040180806020018281038252602e815260200180613783602e913960400191505060405180910390fd5b6000831180156128075750600082115b6128425760405162461bcd60e51b815260040180806020018281038252602b815260200180613876602b913960400191505060405180910390fd5b6000612856856103e563ffffffff61343a16565b9050600061286a828563ffffffff61343a16565b9050600061289083612884886103e863ffffffff61343a16565b9063ffffffff61349d16565b905080828161289b57fe5b04979650505050505050565b60606002825110156128ea5760405162461bcd60e51b81526004018080602001828103825260218152602001806136836021913960400191505060405180910390fd5b815167ffffffffffffffff8111801561290257600080fd5b5060405190808252806020026020018201604052801561292c578160200160208202803683370190505b509050828160008151811061293d57fe5b60200260200101818152505060005b60018351038110156129d55760008061298f8786858151811061296b57fe5b602002602001015187866001018151811061298257fe5b60200260200101516134ec565b915091506129b18484815181106129a257fe5b602002602001015183836127b7565b8484600101815181106129c057fe5b6020908102919091010152505060010161294c565b509392505050565b60008060006129ec85856130fe565b604080516bffffffffffffffffffffffff19606094851b811660208084019190915293851b81166034830152825160288184030181526048830184528051908501206001600160f81b031960688401529a90941b9093166069840152607d8301989098527f96e8ac4277198ff8b6f785478aa9a39f403cb768dd02cbee326c3e7da348845f609d808401919091528851808403909101815260bd909201909752805196019590952095945050505050565b604080516001600160a01b0385811660248301528481166044830152606480830185905283518084039091018152608490920183526020820180516001600160e01b03166323b872dd60e01b17815292518251600094606094938a169392918291908083835b60208310612b225780518252601f199092019160209182019101612b03565b6001836020036101000a0380198251168184511680821785525050505050509050019150506000604051808303816000865af19150503d8060008114612b84576040519150601f19603f3d011682016040523d82523d6000602084013e612b89565b606091505b5091509150818015612bb7575080511580612bb75750808060200190516020811015612bb457600080fd5b50515b612bf25760405162461bcd60e51b81526004018080602001828103825260318152602001806136cc6031913960400191505060405180910390fd5b505050505050565b60005b6001835103811015612e3a57600080848381518110612c1857fe5b6020026020010151858460010181518110612c2f57fe5b6020026020010151915091506000612c4783836130fe565b5090506000878560010181518110612c5b57fe5b60200260200101519050600080836001600160a01b0316866001600160a01b031614612c8957826000612c8d565b6000835b91509150600060028a51038810612ca45788612ce5565b612ce57f0000000000000000000000000000000000000000000000000000000000000000878c8b60020181518110612cd857fe5b60200260200101516129dd565b9050612d127f000000000000000000000000000000000000000000000000000000000000000088886129dd565b6001600160a01b031663022c0d9f84848460006040519080825280601f01601f191660200182016040528015612d4f576020820181803683370190505b506040518563ffffffff1660e01b815260040180858152602001848152602001836001600160a01b03166001600160a01b0316815260200180602001828103825283818151815260200191508051906020019080838360005b83811015612dc0578181015183820152602001612da8565b50505050905090810190601f168015612ded5780820380516001836020036101000a031916815260200191505b5095505050505050600060405180830381600087803b158015612e0f57600080fd5b505af1158015612e23573d6000803e3d6000fd5b505060019099019850612bfd975050505050505050565b50505050565b6060600282511015612e835760405162461bcd60e51b81526004018080602001828103825260218152602001806136836021913960400191505060405180910390fd5b815167ffffffffffffffff81118015612e9b57600080fd5b50604051908082528060200260200182016040528015612ec5578160200160208202803683370190505b5090508281600183510381518110612ed957fe5b60209081029190910101528151600019015b80156129d557600080612f1b87866001860381518110612f0757fe5b602002602001015187868151811061298257fe5b91509150612f3d848481518110612f2e57fe5b60200260200101518383612f62565b846001850381518110612f4c57fe5b6020908102919091010152505060001901612eeb565b6000808411612fa25760405162461bcd60e51b815260040180806020018281038252602f8152602001806137d1602f913960400191505060405180910390fd5b600083118015612fb25750600082115b612fed5760405162461bcd60e51b815260040180806020018281038252602b815260200180613876602b913960400191505060405180910390fd5b60006130116103e8613005868863ffffffff61343a16565b9063ffffffff61343a16565b9050600061302b6103e5613005868963ffffffff6135ba16565b9050613048600182848161303b57fe5b049063ffffffff61349d16565b9695505050505050565b60008084116130925760405162461bcd60e51b81526004018080602001828103825260288152602001806136a46028913960400191505060405180910390fd5b6000831180156130a25750600082115b6130dd5760405162461bcd60e51b815260040180806020018281038252602b815260200180613876602b913960400191505060405180910390fd5b826130ee858463ffffffff61343a16565b816130f557fe5b04949350505050565b600080826001600160a01b0316846001600160a01b031614156131525760405162461bcd60e51b81526004018080602001828103825260288152602001806138216028913960400191505060405180910390fd5b826001600160a01b0316846001600160a01b031610613172578284613175565b83835b90925090506001600160a01b0382166131bf5760405162461bcd60e51b81526004018080602001828103825260218152602001806138006021913960400191505060405180910390fd5b9250929050565b6040805163e6a4390560e01b81526001600160a01b03888116600483015287811660248301529151600092839283927f00000000000000000000000000000000000000000000000000000000000000009092169163e6a4390591604480820192602092909190829003018186803b15801561324057600080fd5b505afa158015613254573d6000803e3d6000fd5b505050506040513d602081101561326a57600080fd5b50516001600160a01b0316141561331d57604080516364e329cb60e11b81526001600160a01b038a81166004830152898116602483015291517f00000000000000000000000000000000000000000000000000000000000000009092169163c9c65396916044808201926020929091908290030181600087803b1580156132f057600080fd5b505af1158015613304573d6000803e3d6000fd5b505050506040513d602081101561331a57600080fd5b50505b60008061334b7f00000000000000000000000000000000000000000000000000000000000000008b8b6134ec565b9150915081600014801561335d575080155b1561336d5787935086925061342d565b600061337a898484613052565b90508781116133cd57858110156133c25760405162461bcd60e51b815260040180806020018281038252602981526020018061375a6029913960400191505060405180910390fd5b88945092508261342b565b60006133da898486613052565b9050898111156133e657fe5b878110156134255760405162461bcd60e51b81526004018080602001828103825260298152602001806137316029913960400191505060405180910390fd5b94508793505b505b5050965096945050505050565b60008115806134555750508082028282828161345257fe5b04145b610f52576040805162461bcd60e51b815260206004820152601460248201527364732d6d6174682d6d756c2d6f766572666c6f7760601b604482015290519081900360640190fd5b80820182811015610f52576040805162461bcd60e51b815260206004820152601460248201527364732d6d6174682d6164642d6f766572666c6f7760601b604482015290519081900360640190fd5b60008060006134fb85856130fe565b50905060008061350c8888886129dd565b6001600160a01b0316630902f1ac6040518163ffffffff1660e01b815260040160606040518083038186803b15801561354457600080fd5b505afa158015613558573d6000803e3d6000fd5b505050506040513d606081101561356e57600080fd5b5080516020909101516dffffffffffffffffffffffffffff91821693501690506001600160a01b03878116908416146135a85780826135ab565b81815b90999098509650505050505050565b80820382811115610f52576040805162461bcd60e51b815260206004820152601560248201527464732d6d6174682d7375622d756e646572666c6f7760581b604482015290519081900360640190fdfe4a6f6c6c6f66737761705632526f757465723a204558504952454400000000004a6f6c6c6f66737761705632526f757465723a20494e53554646494349454e545f4f55545055545f414d4f554e544a6f6c6c6f66737761705632526f757465723a204558434553534956455f494e5055545f414d4f554e544a6f6c6c6f667377617056324c6962726172793a20494e56414c49445f504154484a6f6c6c6f667377617056324c6962726172793a20494e53554646494349454e545f414d4f554e545472616e7366657248656c7065723a3a7472616e7366657246726f6d3a207472616e7366657246726f6d206661696c65645472616e7366657248656c7065723a3a736166655472616e736665724554483a20455448207472616e73666572206661696c65644a6f6c6c6f66737761705632526f757465723a20494e53554646494349454e545f415f414d4f554e544a6f6c6c6f66737761705632526f757465723a20494e53554646494349454e545f425f414d4f554e544a6f6c6c6f667377617056324c6962726172793a20494e53554646494349454e545f494e5055545f414d4f554e544a6f6c6c6f66737761705632526f757465723a20494e56414c49445f504154484a6f6c6c6f667377617056324c6962726172793a20494e53554646494349454e545f4f55545055545f414d4f554e544a6f6c6c6f667377617056324c6962726172793a205a45524f5f414444524553534a6f6c6c6f667377617056324c6962726172793a204944454e544943414c5f4144445245535345535472616e7366657248656c7065723a3a736166655472616e736665723a207472616e73666572206661696c65644a6f6c6c6f667377617056324c6962726172793a20494e53554646494349454e545f4c4951554944495459a26469706673582212204cbef742aee354a5718488a80502557a6df9c25d5e828c964b947d0cdb06d01e64736f6c63430006060033",
  "immutableReferences": {
    "1644": [
      {
        "length": 32,
        "start": 3283
      },
      {
        "length": 32,
        "start": 3498
      },
      {
        "length": 32,
        "start": 3881
      },
      {
        "length": 32,
        "start": 3938
      },
      {
        "length": 32,
        "start": 4253
      },
      {
        "length": 32,
        "start": 4731
      },
      {
        "length": 32,
        "start": 4913
      },
      {
        "length": 32,
        "start": 5394
      },
      {
        "length": 32,
        "start": 5759
      },
      {
        "length": 32,
        "start": 6143
      },
      {
        "length": 32,
        "start": 6829
      },
      {
        "length": 32,
        "start": 7333
      },
      {
        "length": 32,
        "start": 7374
      },
      {
        "length": 32,
        "start": 7422
      },
      {
        "length": 32,
        "start": 7787
      },
      {
        "length": 32,
        "start": 8135
      },
      {
        "length": 32,
        "start": 8900
      },
      {
        "length": 32,
        "start": 9262
      },
      {
        "length": 32,
        "start": 11433
      },
      {
        "length": 32,
        "start": 11500
      },
      {
        "length": 32,
        "start": 12791
      },
      {
        "length": 32,
        "start": 12965
      },
      {
        "length": 32,
        "start": 13093
      }
    ],
    "1647": [
      {
        "length": 32,
        "start": 318
      },
      {
        "length": 32,
        "start": 2835
      },
      {
        "length": 32,
        "start": 2894
      },
      {
        "length": 32,
        "start": 3141
      },
      {
        "length": 32,
        "start": 3683
      },
      {
        "length": 32,
        "start": 4589
      },
      {
        "length": 32,
        "start": 4947
      },
      {
        "length": 32,
        "start": 5247
      },
      {
        "length": 32,
        "start": 5573
      },
      {
        "length": 32,
        "start": 5709
      },
      {
        "length": 32,
        "start": 6319
      },
      {
        "length": 32,
        "start": 6442
      },
      {
        "length": 32,
        "start": 6617
      },
      {
        "length": 32,
        "start": 7456
      },
      {
        "length": 32,
        "start": 8083
      },
      {
        "length": 32,
        "start": 8169
      },
      {
        "length": 32,
        "start": 8221
      },
      {
        "length": 32,
        "start": 8337
      },
      {
        "length": 32,
        "start": 8753
      },
      {
        "length": 32,
        "start": 9076
      },
      {
        "length": 32,
        "start": 9212
      }
    ]
  },
  "source": "pragma solidity =0.6.6;\n\nimport '@uniswap/v2-core/contracts/interfaces/IUniswapV2Factory.sol';\nimport '@uniswap/lib/contracts/libraries/TransferHelper.sol';\n\nimport './interfaces/IJollofswapV2Router02.sol';\nimport './libraries/JollofswapV2Library.sol';\nimport './libraries/SafeMath.sol';\nimport './interfaces/IERC20.sol';\nimport './interfaces/IWETH.sol';\n\ncontract JollofswapV2Router02 is IJollofswapV2Router02 {\n    using SafeMath for uint;\n\n    address public immutable override factory;\n    address public immutable override WETH;\n\n    modifier ensure(uint deadline) {\n        require(deadline >= block.timestamp, 'JollofswapV2Router: EXPIRED');\n        _;\n    }\n\n    constructor(address _factory, address _WETH) public {\n        factory = _factory;\n        WETH = _WETH;\n    }\n\n    receive() external payable {\n        assert(msg.sender == WETH); // only accept ETH via fallback from the WETH contract\n    }\n\n    // **** ADD LIQUIDITY ****\n    function _addLiquidity(\n        address tokenA,\n        address tokenB,\n        uint amountADesired,\n        uint amountBDesired,\n        uint amountAMin,\n        uint amountBMin\n    ) internal virtual returns (uint amountA, uint amountB) {\n        // create the pair if it doesn't exist yet\n        if (IUniswapV2Factory(factory).getPair(tokenA, tokenB) == address(0)) {\n            IUniswapV2Factory(factory).createPair(tokenA, tokenB);\n        }\n        (uint reserveA, uint reserveB) = JollofswapV2Library.getReserves(factory, tokenA, tokenB);\n        if (reserveA == 0 && reserveB == 0) {\n            (amountA, amountB) = (amountADesired, amountBDesired);\n        } else {\n            uint amountBOptimal = JollofswapV2Library.quote(amountADesired, reserveA, reserveB);\n            if (amountBOptimal <= amountBDesired) {\n                require(amountBOptimal >= amountBMin, 'JollofswapV2Router: INSUFFICIENT_B_AMOUNT');\n                (amountA, amountB) = (amountADesired, amountBOptimal);\n            } else {\n                uint amountAOptimal = JollofswapV2Library.quote(amountBDesired, reserveB, reserveA);\n                assert(amountAOptimal <= amountADesired);\n                require(amountAOptimal >= amountAMin, 'JollofswapV2Router: INSUFFICIENT_A_AMOUNT');\n                (amountA, amountB) = (amountAOptimal, amountBDesired);\n            }\n        }\n    }\n    function addLiquidity(\n        address tokenA,\n        address tokenB,\n        uint amountADesired,\n        uint amountBDesired,\n        uint amountAMin,\n        uint amountBMin,\n        address to,\n        uint deadline\n    ) external virtual override ensure(deadline) returns (uint amountA, uint amountB, uint liquidity) {\n        (amountA, amountB) = _addLiquidity(tokenA, tokenB, amountADesired, amountBDesired, amountAMin, amountBMin);\n        address pair = JollofswapV2Library.pairFor(factory, tokenA, tokenB);\n        TransferHelper.safeTransferFrom(tokenA, msg.sender, pair, amountA);\n        TransferHelper.safeTransferFrom(tokenB, msg.sender, pair, amountB);\n        liquidity = IUniswapV2Pair(pair).mint(to);\n    }\n    function addLiquidityETH(\n        address token,\n        uint amountTokenDesired,\n        uint amountTokenMin,\n        uint amountETHMin,\n        address to,\n        uint deadline\n    ) external virtual override payable ensure(deadline) returns (uint amountToken, uint amountETH, uint liquidity) {\n        (amountToken, amountETH) = _addLiquidity(\n            token,\n            WETH,\n            amountTokenDesired,\n            msg.value,\n            amountTokenMin,\n            amountETHMin\n        );\n        address pair = JollofswapV2Library.pairFor(factory, token, WETH);\n        TransferHelper.safeTransferFrom(token, msg.sender, pair, amountToken);\n        IWETH(WETH).deposit{value: amountETH}();\n        assert(IWETH(WETH).transfer(pair, amountETH));\n        liquidity = IUniswapV2Pair(pair).mint(to);\n        // refund dust eth, if any\n        if (msg.value > amountETH) TransferHelper.safeTransferETH(msg.sender, msg.value - amountETH);\n    }\n\n    // **** REMOVE LIQUIDITY ****\n    function removeLiquidity(\n        address tokenA,\n        address tokenB,\n        uint liquidity,\n        uint amountAMin,\n        uint amountBMin,\n        address to,\n        uint deadline\n    ) public virtual override ensure(deadline) returns (uint amountA, uint amountB) {\n        address pair = JollofswapV2Library.pairFor(factory, tokenA, tokenB);\n        IUniswapV2Pair(pair).transferFrom(msg.sender, pair, liquidity); // send liquidity to pair\n        (uint amount0, uint amount1) = IUniswapV2Pair(pair).burn(to);\n        (address token0,) = JollofswapV2Library.sortTokens(tokenA, tokenB);\n        (amountA, amountB) = tokenA == token0 ? (amount0, amount1) : (amount1, amount0);\n        require(amountA >= amountAMin, 'JollofswapV2Router: INSUFFICIENT_A_AMOUNT');\n        require(amountB >= amountBMin, 'JollofswapV2Router: INSUFFICIENT_B_AMOUNT');\n    }\n    function removeLiquidityETH(\n        address token,\n        uint liquidity,\n        uint amountTokenMin,\n        uint amountETHMin,\n        address to,\n        uint deadline\n    ) public virtual override ensure(deadline) returns (uint amountToken, uint amountETH) {\n        (amountToken, amountETH) = removeLiquidity(\n            token,\n            WETH,\n            liquidity,\n            amountTokenMin,\n            amountETHMin,\n            address(this),\n            deadline\n        );\n        TransferHelper.safeTransfer(token, to, amountToken);\n        IWETH(WETH).withdraw(amountETH);\n        TransferHelper.safeTransferETH(to, amountETH);\n    }\n    function removeLiquidityWithPermit(\n        address tokenA,\n        address tokenB,\n        uint liquidity,\n        uint amountAMin,\n        uint amountBMin,\n        address to,\n        uint deadline,\n        bool approveMax, uint8 v, bytes32 r, bytes32 s\n    ) external virtual override returns (uint amountA, uint amountB) {\n        address pair = JollofswapV2Library.pairFor(factory, tokenA, tokenB);\n        uint value = approveMax ? uint(-1) : liquidity;\n        IUniswapV2Pair(pair).permit(msg.sender, address(this), value, deadline, v, r, s);\n        (amountA, amountB) = removeLiquidity(tokenA, tokenB, liquidity, amountAMin, amountBMin, to, deadline);\n    }\n    function removeLiquidityETHWithPermit(\n        address token,\n        uint liquidity,\n        uint amountTokenMin,\n        uint amountETHMin,\n        address to,\n        uint deadline,\n        bool approveMax, uint8 v, bytes32 r, bytes32 s\n    ) external virtual override returns (uint amountToken, uint amountETH) {\n        address pair = JollofswapV2Library.pairFor(factory, token, WETH);\n        uint value = approveMax ? uint(-1) : liquidity;\n        IUniswapV2Pair(pair).permit(msg.sender, address(this), value, deadline, v, r, s);\n        (amountToken, amountETH) = removeLiquidityETH(token, liquidity, amountTokenMin, amountETHMin, to, deadline);\n    }\n\n    // **** REMOVE LIQUIDITY (supporting fee-on-transfer tokens) ****\n    function removeLiquidityETHSupportingFeeOnTransferTokens(\n        address token,\n        uint liquidity,\n        uint amountTokenMin,\n        uint amountETHMin,\n        address to,\n        uint deadline\n    ) public virtual override ensure(deadline) returns (uint amountETH) {\n        (, amountETH) = removeLiquidity(\n            token,\n            WETH,\n            liquidity,\n            amountTokenMin,\n            amountETHMin,\n            address(this),\n            deadline\n        );\n        TransferHelper.safeTransfer(token, to, IERC20(token).balanceOf(address(this)));\n        IWETH(WETH).withdraw(amountETH);\n        TransferHelper.safeTransferETH(to, amountETH);\n    }\n    function removeLiquidityETHWithPermitSupportingFeeOnTransferTokens(\n        address token,\n        uint liquidity,\n        uint amountTokenMin,\n        uint amountETHMin,\n        address to,\n        uint deadline,\n        bool approveMax, uint8 v, bytes32 r, bytes32 s\n    ) external virtual override returns (uint amountETH) {\n        address pair = JollofswapV2Library.pairFor(factory, token, WETH);\n        uint value = approveMax ? uint(-1) : liquidity;\n        IUniswapV2Pair(pair).permit(msg.sender, address(this), value, deadline, v, r, s);\n        amountETH = removeLiquidityETHSupportingFeeOnTransferTokens(\n            token, liquidity, amountTokenMin, amountETHMin, to, deadline\n        );\n    }\n\n    // **** SWAP ****\n    // requires the initial amount to have already been sent to the first pair\n    function _swap(uint[] memory amounts, address[] memory path, address _to) internal virtual {\n        for (uint i; i < path.length - 1; i++) {\n            (address input, address output) = (path[i], path[i + 1]);\n            (address token0,) = JollofswapV2Library.sortTokens(input, output);\n            uint amountOut = amounts[i + 1];\n            (uint amount0Out, uint amount1Out) = input == token0 ? (uint(0), amountOut) : (amountOut, uint(0));\n            address to = i < path.length - 2 ? JollofswapV2Library.pairFor(factory, output, path[i + 2]) : _to;\n            IUniswapV2Pair(JollofswapV2Library.pairFor(factory, input, output)).swap(\n                amount0Out, amount1Out, to, new bytes(0)\n            );\n        }\n    }\n    function swapExactTokensForTokens(\n        uint amountIn,\n        uint amountOutMin,\n        address[] calldata path,\n        address to,\n        uint deadline\n    ) external virtual override ensure(deadline) returns (uint[] memory amounts) {\n        amounts = JollofswapV2Library.getAmountsOut(factory, amountIn, path);\n        require(amounts[amounts.length - 1] >= amountOutMin, 'JollofswapV2Router: INSUFFICIENT_OUTPUT_AMOUNT');\n        TransferHelper.safeTransferFrom(\n            path[0], msg.sender, JollofswapV2Library.pairFor(factory, path[0], path[1]), amounts[0]\n        );\n        _swap(amounts, path, to);\n    }\n    function swapTokensForExactTokens(\n        uint amountOut,\n        uint amountInMax,\n        address[] calldata path,\n        address to,\n        uint deadline\n    ) external virtual override ensure(deadline) returns (uint[] memory amounts) {\n        amounts = JollofswapV2Library.getAmountsIn(factory, amountOut, path);\n        require(amounts[0] <= amountInMax, 'JollofswapV2Router: EXCESSIVE_INPUT_AMOUNT');\n        TransferHelper.safeTransferFrom(\n            path[0], msg.sender, JollofswapV2Library.pairFor(factory, path[0], path[1]), amounts[0]\n        );\n        _swap(amounts, path, to);\n    }\n    function swapExactETHForTokens(uint amountOutMin, address[] calldata path, address to, uint deadline)\n        external\n        virtual\n        override\n        payable\n        ensure(deadline)\n        returns (uint[] memory amounts)\n    {\n        require(path[0] == WETH, 'JollofswapV2Router: INVALID_PATH');\n        amounts = JollofswapV2Library.getAmountsOut(factory, msg.value, path);\n        require(amounts[amounts.length - 1] >= amountOutMin, 'JollofswapV2Router: INSUFFICIENT_OUTPUT_AMOUNT');\n        IWETH(WETH).deposit{value: amounts[0]}();\n        assert(IWETH(WETH).transfer(JollofswapV2Library.pairFor(factory, path[0], path[1]), amounts[0]));\n        _swap(amounts, path, to);\n    }\n    function swapTokensForExactETH(uint amountOut, uint amountInMax, address[] calldata path, address to, uint deadline)\n        external\n        virtual\n        override\n        ensure(deadline)\n        returns (uint[] memory amounts)\n    {\n        require(path[path.length - 1] == WETH, 'JollofswapV2Router: INVALID_PATH');\n        amounts = JollofswapV2Library.getAmountsIn(factory, amountOut, path);\n        require(amounts[0] <= amountInMax, 'JollofswapV2Router: EXCESSIVE_INPUT_AMOUNT');\n        TransferHelper.safeTransferFrom(\n            path[0], msg.sender, JollofswapV2Library.pairFor(factory, path[0], path[1]), amounts[0]\n        );\n        _swap(amounts, path, address(this));\n        IWETH(WETH).withdraw(amounts[amounts.length - 1]);\n        TransferHelper.safeTransferETH(to, amounts[amounts.length - 1]);\n    }\n    function swapExactTokensForETH(uint amountIn, uint amountOutMin, address[] calldata path, address to, uint deadline)\n        external\n        virtual\n        override\n        ensure(deadline)\n        returns (uint[] memory amounts)\n    {\n        require(path[path.length - 1] == WETH, 'JollofswapV2Router: INVALID_PATH');\n        amounts = JollofswapV2Library.getAmountsOut(factory, amountIn, path);\n        require(amounts[amounts.length - 1] >= amountOutMin, 'JollofswapV2Router: INSUFFICIENT_OUTPUT_AMOUNT');\n        TransferHelper.safeTransferFrom(\n            path[0], msg.sender, JollofswapV2Library.pairFor(factory, path[0], path[1]), amounts[0]\n        );\n        _swap(amounts, path, address(this));\n        IWETH(WETH).withdraw(amounts[amounts.length - 1]);\n        TransferHelper.safeTransferETH(to, amounts[amounts.length - 1]);\n    }\n    function swapETHForExactTokens(uint amountOut, address[] calldata path, address to, uint deadline)\n        external\n        virtual\n        override\n        payable\n        ensure(deadline)\n        returns (uint[] memory amounts)\n    {\n        require(path[0] == WETH, 'JollofswapV2Router: INVALID_PATH');\n        amounts = JollofswapV2Library.getAmountsIn(factory, amountOut, path);\n        require(amounts[0] <= msg.value, 'JollofswapV2Router: EXCESSIVE_INPUT_AMOUNT');\n        IWETH(WETH).deposit{value: amounts[0]}();\n        assert(IWETH(WETH).transfer(JollofswapV2Library.pairFor(factory, path[0], path[1]), amounts[0]));\n        _swap(amounts, path, to);\n        // refund dust eth, if any\n        if (msg.value > amounts[0]) TransferHelper.safeTransferETH(msg.sender, msg.value - amounts[0]);\n    }\n\n/*\n    // **** SWAP (supporting fee-on-transfer tokens) ****\n    // requires the initial amount to have already been sent to the first pair\n    function _swapSupportingFeeOnTransferTokens(address[] memory path, address _to) internal virtual {\n        for (uint i; i < path.length - 1; i++) {\n            (address input, address output) = (path[i], path[i + 1]);\n            (address token0,) = UniswapV2Library.sortTokens(input, output);\n            IUniswapV2Pair pair = IUniswapV2Pair(UniswapV2Library.pairFor(factory, input, output));\n            uint amountInput;\n            uint amountOutput;\n            { // scope to avoid stack too deep errors\n            (uint reserve0, uint reserve1,) = pair.getReserves();\n            (uint reserveInput, uint reserveOutput) = input == token0 ? (reserve0, reserve1) : (reserve1, reserve0);\n            amountInput = IERC20(input).balanceOf(address(pair)).sub(reserveInput);\n            amountOutput = UniswapV2Library.getAmountOut(amountInput, reserveInput, reserveOutput);\n            }\n            (uint amount0Out, uint amount1Out) = input == token0 ? (uint(0), amountOutput) : (amountOutput, uint(0));\n            address to = i < path.length - 2 ? UniswapV2Library.pairFor(factory, output, path[i + 2]) : _to;\n            pair.swap(amount0Out, amount1Out, to, new bytes(0));\n        }\n    }\n    function swapExactTokensForTokensSupportingFeeOnTransferTokens(\n        uint amountIn,\n        uint amountOutMin,\n        address[] calldata path,\n        address to,\n        uint deadline\n    ) external virtual override ensure(deadline) {\n        TransferHelper.safeTransferFrom(\n            path[0], msg.sender, UniswapV2Library.pairFor(factory, path[0], path[1]), amountIn\n        );\n        uint balanceBefore = IERC20(path[path.length - 1]).balanceOf(to);\n        _swapSupportingFeeOnTransferTokens(path, to);\n        require(\n            IERC20(path[path.length - 1]).balanceOf(to).sub(balanceBefore) >= amountOutMin,\n            'UniswapV2Router: INSUFFICIENT_OUTPUT_AMOUNT'\n        );\n    }\n    function swapExactETHForTokensSupportingFeeOnTransferTokens(\n        uint amountOutMin,\n        address[] calldata path,\n        address to,\n        uint deadline\n    )\n        external\n        virtual\n        override\n        payable\n        ensure(deadline)\n    {\n        require(path[0] == WETH, 'UniswapV2Router: INVALID_PATH');\n        uint amountIn = msg.value;\n        IWETH(WETH).deposit{value: amountIn}();\n        assert(IWETH(WETH).transfer(UniswapV2Library.pairFor(factory, path[0], path[1]), amountIn));\n        uint balanceBefore = IERC20(path[path.length - 1]).balanceOf(to);\n        _swapSupportingFeeOnTransferTokens(path, to);\n        require(\n            IERC20(path[path.length - 1]).balanceOf(to).sub(balanceBefore) >= amountOutMin,\n            'UniswapV2Router: INSUFFICIENT_OUTPUT_AMOUNT'\n        );\n    }\n    function swapExactTokensForETHSupportingFeeOnTransferTokens(\n        uint amountIn,\n        uint amountOutMin,\n        address[] calldata path,\n        address to,\n        uint deadline\n    )\n        external\n        virtual\n        override\n        ensure(deadline)\n    {\n        require(path[path.length - 1] == WETH, 'UniswapV2Router: INVALID_PATH');\n        TransferHelper.safeTransferFrom(\n            path[0], msg.sender, UniswapV2Library.pairFor(factory, path[0], path[1]), amountIn\n        );\n        _swapSupportingFeeOnTransferTokens(path, address(this));\n        uint amountOut = IERC20(WETH).balanceOf(address(this));\n        require(amountOut >= amountOutMin, 'UniswapV2Router: INSUFFICIENT_OUTPUT_AMOUNT');\n        IWETH(WETH).withdraw(amountOut);\n        TransferHelper.safeTransferETH(to, amountOut);\n    }\n*/\n\n    // **** LIBRARY FUNCTIONS ****\n    function quote(uint amountA, uint reserveA, uint reserveB) public pure virtual override returns (uint amountB) {\n        return JollofswapV2Library.quote(amountA, reserveA, reserveB);\n    }\n\n    function getAmountOut(uint amountIn, uint reserveIn, uint reserveOut)\n        public\n        pure\n        virtual\n        override\n        returns (uint amountOut)\n    {\n        return JollofswapV2Library.getAmountOut(amountIn, reserveIn, reserveOut);\n    }\n\n    function getAmountIn(uint amountOut, uint reserveIn, uint reserveOut)\n        public\n        pure\n        virtual\n        override\n        returns (uint amountIn)\n    {\n        return JollofswapV2Library.getAmountIn(amountOut, reserveIn, reserveOut);\n    }\n\n    function getAmountsOut(uint amountIn, address[] memory path)\n        public\n        view\n        virtual\n        override\n        returns (uint[] memory amounts)\n    {\n        return JollofswapV2Library.getAmountsOut(factory, amountIn, path);\n    }\n\n    function getAmountsIn(uint amountOut, address[] memory path)\n        public\n        view\n        virtual\n        override\n        returns (uint[] memory amounts)\n    {\n        return JollofswapV2Library.getAmountsIn(factory, amountOut, path);\n    }\n}\n",
  "sourcePath": "/home/akanimoh/Documents/hackathons/uniswap/periphery/contracts/JollofswapV2Router02.sol",
  "compiler": {
    "name": "solc",
    "version": "0.6.6+commit.6c089d02.Emscripten.clang"
  },
  "schemaVersion": "3.4.1",
  "updatedAt": "2021-11-20T00:09:12.642Z",
  "networkType": "ethereum",
  "devdoc": {
    "methods": {}
  },
  "userdoc": {
    "methods": {}
  }
}